:100000000C9446000C945D000C945D000C945D0013
:100010000C945D000C945D000C945D000C945D00EC
:100020000C945D000C945D000C945D000C945D00DC
:100030000C945D000C945D000C945D000C945D00CC
:100040000C945D000C945D000C945D000C945D00BC
:100050000C945D000C945D000C945D000C945D00AC
:100060000C945D000C945D000C945D000C945D009C
:100070000C945D000C945D000C945D000C945D008C
:100080000C945D000C945D000C945D0011241FBE67
:10009000CFEFD0E4DEBFCDBF11E0A0E0B1E0E0E003
:1000A000F2E000E00BBF02C007900D92AE30B10746
:1000B000D9F70E9499000C94FE000C940000CF9395
:1000C000DF9300D01F92CDB7DEB789837B836A832D
:1000D00089818A3031F48A819B81BC018DE00E9444
:1000E0005F0080EC90E0FC018081882F90E08072BE
:1000F0009927892BB1F386EC90E02981FC012083BC
:1001000080E090E00F900F900F90DF91CF910895D5
:10011000CF93DF93CDB7DEB78AE790E02AE730E0F0
:10012000F9012081206EFC0120830000DF91CF9136
:100130000895CF93DF9300D01F92CDB7DEB784E24E
:1001400090E02FEFFC01208385E290E0FC0110821B
:100150008AE290E02FEFFC0120838BE290E0FC012B
:10016000108219820E94880088E790E0FC0180815B
:1001700091819B838A838A819B818E36910518F0B9
:100180008FEF898335C08A819B818036910518F075
:100190008FE789832DC08A819B818235910518F074
:1001A0008FE3898325C08A819B818434910518F06F
:1001B0008FE189831DC08A819B81C79718F08FE0EA
:1001C000898316C08A819B81899718F087E089838B
:1001D0000FC08A819B814B9718F083E0898308C008
:1001E0008A819B810D9718F081E0898301C0198273
:1001F00085E290E02981FC012083B6CFF894FFCFFF
:0E02000000000002000000005F00000000008F
:00000001FF
